:020000040000FA
:040000006AEF14F09F
:1010000000010101010101010001010101010100D3
:1010100001010101010100010101010101000101C2
:1010200001010101000101010101010001010101B2
:1010300001010001010101010100010101010101A2
:10104000010000000000000001000000000000019D
:10105000000000000000010000000000000100008E
:10106000000000000100000000000001000000007E
:10107000000001000000000000010000000000006E
:101080000000F0EC14F0B4EC14F0DFEC14F0520EAD
:101090000001696F2B0E686F000EE82EFED7682FD7
:1010A000FCD7692FFAD700F0CEEC14F022EEC0F096
:1010B00011EE80F03F0EDBCFE3FFE806FCE222EE0C
:1010C00080F011EEC0F03F0EDBCFE3FFE806FCE25C
:1010D000000E0001FB6F030EFA6F000EF66F000E9C
:1010E000F56F000E5D6E000E5C6E22EE00F010EEED
:1010F0006DF07F0EDBCFE3FFE806FCE223EE00F0AD
:1011000011EE00F07F0EDBCFE3FFE806FCE26DC0DE
:101110005EF06EC05FF000C1F1F001C1F2F0520E5E
:10112000F96F000EED6F000EEE6F800EEF6F430E45
:10113000F06FCEEC14F0BDEF08F0EDC04CF0EEC057
:101140004DF0EFC04EF0F0C04FF0FAC050F0FBC0D1
:1011500051F0800E526E010E536EC00E546E010E91
:10116000556E5EC056F05FC057F0F1C058F0F2C047
:1011700059F0F9C05AF0E1EC0FF081B0C2EF08F07D
:10118000C4EF08F0D9EF08F081B2C9EF08F0CBEF57
:1011900008F0D9EF08F081B4D0EF08F0D2EF08F0F2
:1011A000D9EF08F081A6D7EF08F0D9EF08F09DEF4E
:1011B00008F081B0DEEF08F0E0EF08F0D9EF08F0BA
:1011C00081B2E5EF08F0E7EF08F0D9EF08F081B45D
:1011D000ECEF08F0EEEF08F0D9EF08F081B6F3EF8E
:1011E00008F0F5EF08F0D9EF08F00D0E0001696F77
:1011F0002D0E686FD70EE82EFED7682FFCD7692F0B
:10120000FAD700D0000E0001F46F010EF36F40EF2B
:1012100009F0800EF325D96E010EF421DA6E01017A
:101220008051DE18D8A417EF09F019EF09F03DEF4F
:1012300009F0C00E0001F325D96E010EF421DA6E1B
:101240000101C051DE18D8A428EF09F02AEF09F0F7
:101250003DEF09F0DFEC14F0520E0001696F2B0E28
:10126000686F000EE82EFED7682FFCD7692FFAD7DB
:1012700000F0000E5D6E010E5C6E0001F34BF42B6E
:10128000FF0E686FFF0E696FFAC06AF0FBC06BF06B
:1012900068516A2769516B236A51F35DF451800AE2
:1012A0006C6F6B51800A6C59D8A059EF09F05BEF55
:1012B00009F009EF09F0FF0EFA25F76FFF0EFB2189
:1012C000F86FF8BF6EEF09F0F85106E1F705D8B0F6
:1012D0006CEF09F06EEF09F070EF09F0B9EF09F06B
:1012E000F951D3EC13F00001F96FFF0E686FFF0E98
:1012F000696FF7C06AF0F8C06BF068516A276951EE
:101300006B23800E6A25D96E010E6B21DA6E800E7A
:10131000F725E16E010EF821E26EDFCFE7FFFF0E49
:10132000686FFF0E696FF7C06AF0F8C06BF0685124
:101330006A2769516B23C00E6A25D96E010E6B2195
:10134000DA6EC00EF725E16E010EF821E26EDFCFF6
:10135000E7FFF707D8A0F807F8BFB9EF09F0F85191
:1013600006E1F705D8B0B7EF09F0B9EF09F070EF73
:1013700009F0F951D3EC13F00001F96F04EF0AF012
:10138000060E01018065C7EF09F0C9EF09F0CDEF46
:1013900009F0000E806F21EF0AF08029806F21EFA5
:1013A0000AF001018051D8A4D8EF09F0DAEF09F072
:1013B000DEEF09F0070E806F21EF0AF08005806FE5
:1013C00021EF0AF0060E0101C065E9EF09F0EBEF2D
:1013D00009F0EFEF09F0000EC06F21EF0AF0C0290D
:1013E000C06F21EF0AF00101C051D8A4FAEF09F053
:1013F000FCEF09F000EF0AF0070EC06F21EF0AF0D2
:10140000C005C06F21EF0AF0F951686F696B69512F
:10141000000AD8B40EEF0AF021EF0AF06851440A2E
:10142000D8B4F3EF09F0080AD8B4D1EF09F01E0AD6
:10143000D8B4C0EF09F0070AD8B4E2EF09F021EF01
:101440000AF0EDC04CF0EEC04DF0EFC04EF0F0C031
:101450004FF0FAC050F0FBC051F0800E526E010EFA
:10146000536EC00E546E010E556E5EC056F05FC0D6
:1014700057F0F1C058F0F2C059F0F9C05AF0E1EC61
:101480000FF0010180510001686F696B5E506819AF
:1014900007E15F506919D8A450EF0AF052EF0AF043
:1014A000B7EF0AF00101C0510001686F696BF1519B
:1014B000681907E1F2516919D8A461EF0AF063EFE6
:1014C0000AF0B7EF0AF0FA4BFB2BFBBF73EF0AF001
:1014D000100EFA5D270EFB59D8B071EF0AF073EFCA
:1014E0000AF0B7EF0AF0F54BF62BD890F535D96E28
:1014F000F635DA6E6D0ED926000EDA22DECF5EF0FA
:10150000DDCF5FF0D890F535D96EF635DA6E000E86
:10151000D926010EDA22DECFF1F0DDCFF2F0FF0E98
:10152000686FFF0E696FFAC06AF0FBC06BF068511C
:101530006A2769516B23800E6A25D96E010E6B21D3
:10154000DA6E000EDF6EFF0E686FFF0E696FFAC075
:101550006AF0FBC06BF068516A2769516B23C00EBB
:101560006A25D96E010E6B21DA6E000EDF6E5C0407
:101570005D10D8A4BEEF0AF0C0EF0AF002EF09F048
:10158000DFEC14F0520E0001696F2B0E686F000E35
:10159000E82EFED7682FFCD7692FFAD700F0EFEFBF
:1015A0000AF0EDC04CF0EEC04DF0EFC04EF0F0C0D0
:1015B0004FF0FAC050F0FBC051F0800E526E010E99
:1015C000536EC00E546E010E556E80C156F0576AB0
:1015D000C0C158F0596AF9C05AF0E1EC0FF081B07F
:1015E000F4EF0AF0F6EF0AF00BEF0BF081B2FBEF2D
:1015F0000AF0FDEF0AF00BEF0BF081B402EF0BF0F5
:1016000004EF0BF00BEF0BF081A609EF0BF00BEFE3
:101610000BF0D1EF0AF0050E0001696F0F0E686F35
:10162000F10EE82EFED7682FFCD7692FFAD781B0CC
:101630001CEF0BF01EEF0BF017EF0BF081B223EF56
:101640000BF025EF0BF017EF0BF081B42AEF0BF046
:101650002CEF0BF017EF0BF081B631EF0BF033EFFF
:101660000BF017EF0BF0050E0001696F0F0E686F9E
:10167000F10EE82EFED7682FFCD7692FFAD7CEECF3
:1016800014F081B046EF0BF048EF0BF05DEF0BF07C
:1016900081B24DEF0BF04FEF0BF05DEF0BF081B42B
:1016A00054EF0BF056EF0BF05DEF0BF081A65BEF04
:1016B0000BF05DEF0BF041EF0BF00D0E0001696FC9
:1016C0002D0E686FD70EE82EFED7682FFCD7692F36
:1016D000FAD700D000EF00F02B50800B346E2B5067
:1016E0002B24366E2AAE77EF0BF079EF0BF07AEF02
:1016F0000BF036803650D8B480EF0BF082EF0BF051
:1017000097EF0BF03628D8A488EF0BF08AEF0BF098
:1017100092EF0BF0000E286E000E296E000E2A6E5E
:10172000000E2B6E2A8E000E2B6E9FEF0BF0000E1C
:10173000286E000E296E000E2A6E000E2B6E2F50A2
:10174000800B356E34503518D8B4A9EF0BF0ABEFE1
:101750000BF0ACEF0BF0348C2F502F24356E2EAEE7
:10176000B4EF0BF0B6EF0BF0B7EF0BF03580355060
:10177000D8B4BDEF0BF0BFEF0BF0D4EF0BF0352872
:10178000D8A4C5EF0BF0C7EF0BF0CFEF0BF0000EB6
:101790002C6E000E2D6E000E2E6E000E2F6E2E8EF5
:1017A000000E2F6EDCEF0BF0000E2C6E000E2D6E77
:1017B000000E2E6E000E2F6E3650355CD8B0E3EF63
:1017C0000BF0E5EF0BF00CEF0CF034ACEAEF0BF0A4
:1017D000ECEF0BF0EEEF0BF0800E341A36C037F062
:1017E00035C036F037C035F028C037F02CC028F0AF
:1017F00037C02CF029C037F02DC029F037C02DF0AC
:101800002AC037F02EC02AF037C02EF02BC037F098
:101810002FC02BF037C02FF0000E376E365035C07A
:1018200030F0316A305E000E315A31BE21EF0CF0DB
:10183000315009E11A0E305CD8A021EF0CF023EFF3
:101840000CF05AEF0CF0285029102A102B10D8A4B5
:101850002CEF0CF02FEF0CF0010E30EF0CF0000E1F
:10186000376E000E286E000E296E000E2A6E000ED6
:101870002B6E35C036F063EF0CF037A042EF0CF062
:1018800044EF0CF04AEF0CF0D89037300109376E76
:101890004CEF0CF0D890373228A051EF0CF053EFFA
:1018A0000CF054EF0CF0378E2B342B322A322932C5
:1018B0002832362A3550365CD8A061EF0CF063EF41
:1018C0000CF03DEF0CF034BC68EF0CF06AEF0CF05C
:1018D000AAEF0CF03650D8A470EF0CF072EF0CF0B9
:1018E0007CEF0CF0000E286E000E296E000E2A6EA2
:1018F000000E2B6ECBEF0DF02C5028262D502922F8
:101900002E502A222F502B222BA089EF0CF08BEF88
:101910000CF037EF0DF037A090EF0CF092EF0CF0D9
:1019200098EF0CF0D89037300109376E9AEF0CF031
:10193000D890373228A09FEF0CF0A1EF0CF0A2EF67
:101940000CF0378E2B342B322A3229322832362AA9
:1019500037EF0DF02C50285C2D5029582E502A5866
:101960002B50800A306E2F50800A3058D8B0BBEF11
:101970000CF0BDEF0CF0E8EF0CF028502C5C306E52
:1019800029502D58316E2A502E58326E2B502F5818
:10199000336EFF0E3024286EFF0E3120296EFF0EAD
:1019A00032202A6EFF0E33202B6E800E341A376CD5
:1019B0003750D8A4DEEF0CF0E0EF0CF0F0EF0CF0B5
:1019C000010E2826000E29222A222B22F0EF0CF0ED
:1019D0002C50285E2D50295A2E502A5A2F502B5AFF
:1019E000285029102A102B10D8A4F9EF0CF0FBEF87
:1019F0000CF030EF0DF03750D8A401EF0DF003EFED
:101A00000DF030EF0DF0000E286E000E296E000E66
:101A10002A6E000E2B6ECBEF0DF0D89028362936AB
:101A20002A362B3637AE17EF0DF019EF0DF01AEFFF
:101A30000DF0288037A01FEF0DF021EF0DF025EFFE
:101A40000DF0D880373627EF0DF0D8903736365066
:101A5000D8B42DEF0DF02FEF0DF030EF0DF036066E
:101A60002AAE35EF0DF037EF0DF00DEF0DF0000E53
:101A7000356E37AE3EEF0DF040EF0DF058EF0DF044
:101A800037C030F07F0E3016D8B449EF0DF04BEF71
:101A90000DF04FEF0DF0010E356E58EF0DF028A050
:101AA00054EF0DF056EF0DF058EF0DF04BEF0DF039
:101AB0003550D8B45EEF0DF060EF0DF08BEF0DF008
:101AC000010E2826000E29222A222B222BA06BEFA2
:101AD0000DF06DEF0DF08BEF0DF028C030F029C048
:101AE00031F02AC032F02BC033F03334333232328B
:101AF0003132303230C028F031C029F032C02AF003
:101B000033C02BF03628D8B488EF0DF08AEF0DF0F3
:101B10008BEF0DF0362A3628D8B491EF0DF093EF05
:101B20000DF09BEF0DF03650D8A499EF0DF09BEF20
:101B30000DF0ADEF0DF0000E286E000E296E000EB8
:101B40002A6E000E2B6E3650D8A4A9EF0DF0ABEF25
:101B50000DF0ADEF0DF0000E346E36A0B2EF0DF0CB
:101B6000B4EF0DF0B7EF0DF02A8EB8EF0DF02A9E0E
:101B7000D89036302B6E34AEC0EF0DF0C2EF0DF0C2
:101B8000C3EF0DF02B8E28C028F029C029F02AC001
:101B90002AF02BC02BF012001250800B1B6E12503B
:101BA0001224216E11AED7EF0DF0D9EF0DF0DAEF60
:101BB0000DF021802150D8B4E0EF0DF0E2EF0DF0F0
:101BC000F5EF0DF02128D8A4E8EF0DF0EAEF0DF0C5
:101BD000F2EF0DF0000E0F6E000E106E000E116E83
:101BE000000E126E118EFDEF0DF0000E0F6E000E46
:101BF000106E000E116E000E126E1650800B1B1A26
:101C000016501624206E15AE08EF0EF00AEF0EF0F7
:101C10000BEF0EF020802050D8B411EF0EF013EF30
:101C20000EF026EF0EF02028D8A419EF0EF01BEFCF
:101C30000EF023EF0EF0000E136E000E146E000E69
:101C4000156E000E166E158E2EEF0EF0000E136E32
:101C5000000E146E000E156E000E166E2050D8B4D5
:101C600034EF0EF036EF0EF03EEF0EF02150D8A418
:101C70003CEF0EF03EEF0EF048EF0EF0000E0F6E50
:101C8000000E106E000E116E000E126EE0EF0FF0DF
:101C900015500F02F3CF26F0F4CF27F026501C6E1C
:101CA0001D6A1E6A1F6A2750226E236A246A256AEB
:101CB00014501002F3CF26F0F4CF27F026501C2644
:101CC000000E1D221E221F2227502226000E232234
:101CD0002422252213501102F3CF26F0F4CF27F04F
:101CE00026501C26000E1D221E221F2227502226AF
:101CF000000E2322242225221EC01FF01DC01EF02C
:101D00001CC01DF01C6A13501002F3CF26F0F4CF54
:101D100027F026501C2627501D22000E1E22000EE2
:101D20001F2214500F02F3CF26F0F4CF27F02650D5
:101D30001C2627501D22000E1E22000E1F221EC030
:101D40001FF01DC01EF01CC01DF01C6A13500F02B6
:101D5000F3CF26F0F4CF27F026501C2627501D2263
:101D6000000E1E22000E1F2215501002F3CF26F087
:101D7000F4CF27F02650222627502322000E2422BB
:101D8000000E252214501102F3CF26F0F4CF27F0D5
:101D90002650222627502322000E2422000E252220
:101DA00015501102F3CF26F0F4CF27F02650176E0E
:101DB0002750186E196A1A6A19C01AF018C019F05B
:101DC00017C018F0176A17502226185023221950EE
:101DD00024221A5025221CC017F01DC018F01EC066
:101DE00019F01FC01AF0190EFBEF0EF0D8901A323E
:101DF000193218321732E82EF6EF0EF0175022265D
:101E000018502322195024221A5025221EC01FF0D8
:101E10001DC01EF01CC01DF01C6A205021C017F010
:101E2000186A1726000E1822820E1724266EFF0E3F
:101E30001820276E31EF0FF0D89022362336243643
:101E400025361FAE26EF0FF028EF0FF029EF0FF029
:101E50002280D8901C361D361E361F362606D8A086
:101E6000270624AE36EF0FF038EF0FF01CEF0FF01F
:101E7000000E206E1FAE3FEF0FF041EF0FF065EF49
:101E80000FF0FF0E1C14176EFF0E1D14186EFF0EC0
:101E90001E14196E7F0E1F141A6E17501810191089
:101EA0001A10D8B456EF0FF058EF0FF05CEF0FF0A8
:101EB000010E206E65EF0FF022A061EF0FF063EFCF
:101EC0000FF065EF0FF058EF0FF02050D8B46BEF24
:101ED0000FF06DEF0FF091EF0FF0010E2226000EC4
:101EE00023222422252225A078EF0FF07AEF0FF08D
:101EF00091EF0FF022C017F023C018F024C019F0A2
:101F000025C01AF01A341A3219321832173217C093
:101F100022F018C023F019C024F01AC025F0264A78
:101F2000272A27BE9CEF0FF0275008E12628D8A0CB
:101F30009CEF0FF09EEF0FF0A8EF0FF0000E226E57
:101F4000000E236E800E246E7F0E256ED6EF0FF0EE
:101F500027BEB5EF0FF0275006E12604D8B0B3EF47
:101F60000FF0B5EF0FF0C1EF0FF0000E226E000E74
:101F7000236E000E246E000E256E000E1B6ED6EF33
:101F80000FF026C021F0FF0E2216FF0E23167F0E43
:101F90002416000E251621A0D0EF0FF0D2EF0FF07F
:101FA000D3EF0FF0248ED8902130256E1B502512D0
:101FB00022C00FF023C010F024C011F025C012F091
:101FC0001200FDEF0FF04CC038F04DC039F04EC09C
:101FD0003AF04FC03BF0000E3C6E000E3D6E800E9E
:101FE0003E6E3F0E3F6E91EC14F038C04CF039C09D
:101FF0004DF03AC04EF03BC04FF09A0E2C6E990E49
:102000002D6E190E2E6E3F0E2F6ECD0E136ECC0E52
:10201000146ECC0E156E3D0E166E50C001F051C000
:1020200002F0000E02BEFF0E036E046E010EF7EC0E
:1020300011F001C00FF002C010F003C011F004C095
:1020400012F0CCEC0DF00FC028F010C029F011C038
:102050002AF012C02BF06CEC0BF028C060F029C005
:1020600061F02AC062F02BC063F0000E406E000EDB
:10207000416ED00E426E410E436E4CC013F04DC007
:1020800014F04EC015F04FC016F060C00FF061C0E4
:1020900010F062C011F063C012F0CCEC0DF00FC074
:1020A0003CF010C03DF011C03EF012C03FF0000EF9
:1020B000386E000E396E800E3A6E430E3B6E91EC18
:1020C00014F038C044F039C045F03AC046F03BC087
:1020D00047F0D1EC12F0D8A070EF10F072EF10F0D2
:1020E000E3EF0FF0000E0001656F000E646FCEEF9E
:1020F00010F05A50D3EC13F05A6E000E0001676FC7
:10210000000E666FA4EF10F05A50D3EC13F05A6E25
:10211000000166515424D96E67515520DA6EDF50A4
:10212000016E66515224D96E67515320DA6EDF502A
:10213000F4EC10F0E40E00D000D0E82EFCD700D074
:1021400000D00001664B672B5050665D6751800AD6
:102150005B6E5150800A5B58D8A0B1EF10F0B3EF1E
:1021600010F084EF10F0CEEC14F00B0E5B6E620EEC
:10217000E82EFED75B2EFCD700D058C001F0565099
:10218000F4EC10F0E40E00D000D0E82EFCD700D024
:1021900000D0CEEC14F00001644B652B64C001F05C
:1021A00065C002F0000E02BEFF0E036E046E010E4B
:1021B000F7EC11F001C040F002C041F003C042F062
:1021C00004C043F04CC044F04DC045F04EC046F052
:1021D0004FC047F0D1EC12F0D8A0F1EF10F0F3EFC0
:1021E00010F079EF10F01200036E790E0324F66EF2
:1021F000F76A100EF7220800F5CF02F002468D5064
:102200000218FD0B02188D6E710E0324F66EF76A2C
:10221000100EF7220800F5CF02F0024602468D505C
:102220000218FB0B02188D6E690E0324F66EF76A16
:10223000100EF7220800F5CF02F0024602468B503E
:102240000218FB0B02188B6E610E0324F66EF76A00
:10225000100EF7220800F5CF02F0024602460246B1
:102260008B500218F70B02188B6E590E0324F66E72
:10227000F76A100EF7220800F5CF02F0023A8B50F1
:102280000218EF0B02188B6E510E0324F66EF76ADC
:10229000100EF7220800F5CF02F0023A02468B50EA
:1022A0000218DF0B02188B6E490E0324F66EF76AD4
:1022B000100EF7220800F5CF02F0023A024602465D
:1022C0008B500218BF0B02188B6E410E0324F66E62
:1022D000F76A100EF7220800F5CF02F00232023240
:1022E0008B5002187F0B02188B6E390E0124F66E8C
:1022F000F76A100EF7220800F5CF02F00246895067
:102300000218FD0B0218896E310E0124F66EF76A71
:10231000100EF7220800F5CF02F00246024689505F
:102320000218FB0B0218896E290E0124F66EF76A5B
:10233000100EF7220800F5CF02F0024602460246D0
:1023400089500218F70B0218896E210E0124F66ECF
:10235000F76A100EF7220800F5CF02F00246024697
:1023600002468C500218F70B02188C6E190E0124CD
:10237000F66EF76A100EF7220800F5CF02F0023A67
:102380008C500218EF0B02188C6E110E0124F66EA1
:10239000F76A100EF7220800F5CF02F0023A024663
:1023A0008C500218DF0B02188C6E090E0124F66E99
:1023B000F76A100EF7220800F5CF02F0023A024643
:1023C00002468C500218BF0B02188C6E010E0124BD
:1023D000F66EF76A100EF7220800F5CF02F002320F
:1023E00002328C5002187F0B02188C6E1200096E9C
:1023F0000950D8B4FEEF11F000EF12F022EF12F006
:1024000004BE07EF12F005EF12F022EF12F001C048
:1024100005F002C006F003C007F004C008F0051E76
:10242000061E071E081E052A000E06220722082285
:1024300005C00BF006C00CF007C00DF008C00EF090
:102440002AEF12F001C00BF002C00CF003C00DF037
:1024500004C00EF00150021003100410D8A433EF92
:1024600012F035EF12F03FEF12F0000E016E000E89
:10247000026E000E036E000E046ED0EF12F0960E88
:102480000A6E49EF12F00A2AD8900E320D320C3241
:102490000B32000E0B14056E000E0C14066E000EAF
:1024A0000D14076EFE0E0E14086E05500610071070
:1024B0000810D8A45EEF12F060EF12F043EF12F0B4
:1024C0006EEF12F00A2A010E0B26000E0C220D22CE
:1024D0000E22D8900E320D320C320B32000E0B143D
:1024E000056E000E0C14066E000E0D14076EFF0E26
:1024F0000E14086E0550061007100810D8A483EFBC
:1025000012F085EF12F062EF12F08DEF12F00A0672
:10251000D8900B360C360D360E360DBE92EF12F0FB
:1025200094EF12F09CEF12F0020E0A609AEF12F094
:102530009CEF12F087EF12F00AB0A1EF12F0A3EFB8
:1025400012F0A4EF12F00D9ED8900A320AC005F0E6
:10255000066A076A086A05C008F0076A066A056A1B
:1025600005500B1206500C1207500D1208500E1297
:102570000950D8B4BEEF12F0C0EF12F0C8EF12F05D
:1025800004BEC7EF12F0C5EF12F0C8EF12F00E8EC6
:102590000BC001F00CC002F00DC003F00EC004F03F
:1025A0001200000E4014486E000E4114496E800E59
:1025B00042144A6E7F0E43144B6E485049104A1025
:1025C0004B10D8A4E6EF12F0E8EF12F0F0EF12F0A3
:1025D000000E406E000E416E000E426E000E436E05
:1025E000000E4414486E000E4514496E800E4614C9
:1025F0004A6E7F0E47144B6E485049104A104B10DC
:10260000D8A405EF13F007EF13F00FEF13F0000E4F
:10261000446E000E456E000E466E000E476E43AED1
:1026200014EF13F016EF13F01FEF13F0406C411E80
:10263000D8B0412A421ED8B0422A800E435647AE37
:1026400024EF13F026EF13F02FEF13F0446C451E28
:10265000D8B0452A461ED8B0462A800E4756000EEE
:10266000401A000E411A000E421A800E431A000E44
:10267000441A000E451A000E461A800E471A44509E
:10268000405C455041584650425847504358D8B096
:102690004CEF13F04EEF13F051EF13F0D89052EFD0
:1026A00013F0D880120006000300050003000700A5
:1026B0000200050001000400020004000200060000
:1026C00003000400010002000600030003000100F3
:1026D00005000600040003000500040002000500D8
:1026E00004000200040006000300050003000700C8
:1026F00002000500010004000200040002000600C0
:1027000003000400010002000600030003000100B2
:102710000500060004000300050004000200050097
:102720000400020004000202020000000000000099
:102730000000000000000000000000000000000099
:102740000000000000000000000000000000000089
:102750000000000000000000000000000000000079
:102760000000000000000201000000000000000066
:102770000000000000000000000000000000000059
:102780000000000000000000000000000000000049
:102790000000000000000000000000000000000039
:1027A000000000000000016E81A0D9EF13F0DBEF04
:1027B00013F0E8EF13F04C0E0118D8B4E2EF13F069
:1027C000E4EF13F0E8EF13F0520E016E24EF14F073
:1027D00081A2EDEF13F0EFEF13F0FCEF13F0520EC8
:1027E0000118D8B4F6EF13F0F8EF13F0FCEF13F084
:1027F0004C0E016E24EF14F081A401EF14F003EFEE
:1028000014F010EF14F0440E0118D8B40AEF14F0CD
:102810000CEF14F010EF14F0550E016E24EF14F0CD
:1028200081A615EF14F017EF14F024EF14F0550EF5
:102830000118D8B41EEF14F020EF14F024EF14F0B8
:10284000440E016E24EF14F01A0EE82EFED700D0CD
:102850000150120002000600030003000100050001
:102860000600040003000500040002000500040047
:102870000200040006000300050003000700020038
:10288000050001000400020004000200060003002D
:10289000040001000200060003000300010005001F
:1028A0000600040003000500040002000500040007
:1028B00002000400060003000500030007000200F8
:1028C00005000100040002000400020006000300ED
:1028D00004000100540EF66E280EF76E000EF86E1E
:1028E00003EE00F010EE80F00900F5CFEEFFE550AA
:1028F000E150FAE1A60EF66E260EF76E000EF86EA7
:1029000002EE00F011EE00F00900F5CFEEFFE55009
:10291000E150FAE1E250F8E1000EF86E000141EFFB
:1029200008F0000E3C1A000E3D1A000E3E1A800EF2
:102930003F1A38C028F039C029F03AC02AF03BC00D
:102940002BF03CC02CF03DC02DF03EC02EF03FC01F
:102950002FF06CEC0BF028C038F029C039F02AC0F9
:102960003AF02BC03BF01200000E936E010E926EF7
:10297000010E946E010E956E010E966E000E0F0103
:10298000386F000E396F000E3A6F000E3B6F000E6D
:102990003C6F619061926194619612008D928D946A
:1029A0008B948B968B988B9A8B9C8B9E8982898437
:1029B00089868C868C888C8A8C8C8C8E12008D8279
:1029C0008D848B848B868B888B8A8B8C8B8E899263
:1029D000899489968C968C988C9A8C9C8C9E1200EB
:0829E000700ED3129B8C120053
:020000040020DA
:08000000FFFFFFFFFFFFFFFF00
:020000040030CA
:0E000000FF281F3CFFBF85FF0FC00FE00F4021
:00000001FF
